{
  "_format": "hh-sol-artifact-1",
  "contractName": "KiiQuiz",
  "sourceName": "contracts/KiiQuiz.sol",
  "abi": [
    {
      "inputs": [],
      "stateMutability": "nonpayable",
      "type": "constructor"
    },
    {
      "anonymous": false,
      "inputs": [
        {
          "indexed": true,
          "internalType": "address",
          "name": "player",
          "type": "address"
        },
        {
          "indexed": true,
          "internalType": "uint256",
          "name": "round",
          "type": "uint256"
        },
        {
          "indexed": false,
          "internalType": "uint256",
          "name": "score",
          "type": "uint256"
        }
      ],
      "name": "ScoreSubmitted",
      "type": "event"
    },
    {
      "inputs": [
        {
          "internalType": "uint256",
          "name": "r",
          "type": "uint256"
        }
      ],
      "name": "getMyScore",
      "outputs": [
        {
          "internalType": "uint256",
          "name": "",
          "type": "uint256"
        }
      ],
      "stateMutability": "view",
      "type": "function"
    },
    {
      "inputs": [
        {
          "internalType": "address",
          "name": "user",
          "type": "address"
        },
        {
          "internalType": "uint256",
          "name": "r",
          "type": "uint256"
        }
      ],
      "name": "getScore",
      "outputs": [
        {
          "internalType": "uint256",
          "name": "",
          "type": "uint256"
        }
      ],
      "stateMutability": "view",
      "type": "function"
    },
    {
      "inputs": [
        {
          "internalType": "uint256",
          "name": "",
          "type": "uint256"
        },
        {
          "internalType": "address",
          "name": "",
          "type": "address"
        }
      ],
      "name": "hasSubmitted",
      "outputs": [
        {
          "internalType": "bool",
          "name": "",
          "type": "bool"
        }
      ],
      "stateMutability": "view",
      "type": "function"
    },
    {
      "inputs": [
        {
          "internalType": "address",
          "name": "user",
          "type": "address"
        },
        {
          "internalType": "uint256",
          "name": "r",
          "type": "uint256"
        }
      ],
      "name": "hasUserSubmitted",
      "outputs": [
        {
          "internalType": "bool",
          "name": "",
          "type": "bool"
        }
      ],
      "stateMutability": "view",
      "type": "function"
    },
    {
      "inputs": [],
      "name": "isQuizActive",
      "outputs": [
        {
          "internalType": "bool",
          "name": "",
          "type": "bool"
        }
      ],
      "stateMutability": "view",
      "type": "function"
    },
    {
      "inputs": [],
      "name": "maxScorePerRound",
      "outputs": [
        {
          "internalType": "uint256",
          "name": "",
          "type": "uint256"
        }
      ],
      "stateMutability": "view",
      "type": "function"
    },
    {
      "inputs": [],
      "name": "owner",
      "outputs": [
        {
          "internalType": "address",
          "name": "",
          "type": "address"
        }
      ],
      "stateMutability": "view",
      "type": "function"
    },
    {
      "inputs": [],
      "name": "round",
      "outputs": [
        {
          "internalType": "uint256",
          "name": "",
          "type": "uint256"
        }
      ],
      "stateMutability": "view",
      "type": "function"
    },
    {
      "inputs": [
        {
          "internalType": "uint256",
          "name": "",
          "type": "uint256"
        },
        {
          "internalType": "address",
          "name": "",
          "type": "address"
        }
      ],
      "name": "scores",
      "outputs": [
        {
          "internalType": "uint256",
          "name": "",
          "type": "uint256"
        }
      ],
      "stateMutability": "view",
      "type": "function"
    },
    {
      "inputs": [
        {
          "internalType": "uint256",
          "name": "maxScore",
          "type": "uint256"
        }
      ],
      "name": "setMaxScorePerRound",
      "outputs": [],
      "stateMutability": "nonpayable",
      "type": "function"
    },
    {
      "inputs": [
        {
          "internalType": "bool",
          "name": "active",
          "type": "bool"
        }
      ],
      "name": "setQuizActive",
      "outputs": [],
      "stateMutability": "nonpayable",
      "type": "function"
    },
    {
      "inputs": [
        {
          "internalType": "uint256",
          "name": "score",
          "type": "uint256"
        }
      ],
      "name": "submitScore",
      "outputs": [],
      "stateMutability": "nonpayable",
      "type": "function"
    }
  ],
  "bytecode": "0x60806040526107d060025534801561001657600080fd5b50336000806101000a81548173ffffffffffffffffffffffffffffffffffffffff021916908373ffffffffffffffffffffffffffffffffffffffff1602179055506001600060146101000a81548160ff02191690831515021790555060018081905550610db7806100886000396000f3fe608060405234801561001057600080fd5b50600436106100b45760003560e01c80637a07b674116100715780637a07b6741461018f5780638da5cb5b146101bf5780639d54080a146101dd5780639ea67d5f1461020d578063a57d380614610229578063aff0b29714610259576100b4565b8063047c2eed146100b95780630b2b8b3c146100d5578063146ca53114610105578063229c3dd7146101235780635073408614610141578063761ef4151461015f575b600080fd5b6100d360048036038101906100ce9190610899565b610275565b005b6100ef60048036038101906100ea919061095a565b610340565b6040516100fc91906109a9565b60405180910390f35b61010d6103a8565b60405161011a91906109d3565b60405180910390f35b61012b6103ae565b60405161013891906109d3565b60405180910390f35b6101496103b4565b60405161015691906109a9565b60405180910390f35b610179600480360381019061017491906109ee565b6103c7565b60405161018691906109d3565b60405180910390f35b6101a960048036038101906101a49190610a1b565b610421565b6040516101b691906109d3565b60405180910390f35b6101c7610446565b6040516101d49190610a6a565b60405180910390f35b6101f760048036038101906101f2919061095a565b61046a565b60405161020491906109d3565b60405180910390f35b610227600480360381019061022291906109ee565b6104c5565b005b610243600480360381019061023e9190610a1b565b6105a0565b60405161025091906109a9565b60405180910390f35b610273600480360381019061026e91906109ee565b6105cf565b005b60008054906101000a900473ffffffffffffffffffffffffffffffffffffffff1673ffffffffffffffffffffffffffffffffffffffff163373ffffffffffffffffffffffffffffffffffffffff1614610303576040517f08c379a00000000000000000000000000000000000000000000000000000000081526004016102fa90610ae2565b60405180910390fd5b80600060146101000a81548160ff021916908315150217905550801561033d5760018060008282546103359190610b31565b925050819055505b50565b60006004600083815260200190815260200160002060008473ffffffffffffffffffffffffffffffffffffffff1673ffffffffffffffffffffffffffffffffffffffff16815260200190815260200160002060009054906101000a900460ff16905092915050565b60015481565b60025481565b600060149054906101000a900460ff1681565b60006003600083815260200190815260200160002060003373ffffffffffffffffffffffffffffffffffffffff1673ffffffffffffffffffffffffffffffffffffffff168152602001908152602001600020549050919050565b6003602052816000526040600020602052806000526040600020600091509150505481565b60008054906101000a900473ffffffffffffffffffffffffffffffffffffffff1681565b60006003600083815260200190815260200160002060008473ffffffffffffffffffffffffffffffffffffffff1673ffffffffffffffffffffffffffffffffffffffff16815260200190815260200160002054905092915050565b60008054906101000a900473ffffffffffffffffffffffffffffffffffffffff1673ffffffffffffffffffffffffffffffffffffffff163373ffffffffffffffffffffffffffffffffffffffff1614610553576040517f08c379a000000000000000000000000000000000000000000000000000000000815260040161054a90610ae2565b60405180910390fd5b60008111610596576040517f08c379a000000000000000000000000000000000000000000000000000000000815260040161058d90610bb1565b60405180910390fd5b8060028190555050565b60046020528160005260406000206020528060005260406000206000915091509054906101000a900460ff1681565b600060149054906101000a900460ff1661061e576040517f08c379a000000000000000000000000000000000000000000000000000000000815260040161061590610c1d565b60405180910390fd5b60046000600154815260200190815260200160002060003373ffffffffffffffffffffffffffffffffffffffff1673ffffffffffffffffffffffffffffffffffffffff16815260200190815260200160002060009054906101000a900460ff16156106be576040517f08c379a00000000000000000000000000000000000000000000000000000000081526004016106b590610c89565b60405180910390fd5b60008111610701576040517f08c379a00000000000000000000000000000000000000000000000000000000081526004016106f890610cf5565b60405180910390fd5b600254811115610746576040517f08c379a000000000000000000000000000000000000000000000000000000000815260040161073d90610d61565b60405180910390fd5b8060036000600154815260200190815260200160002060003373ffffffffffffffffffffffffffffffffffffffff1673ffffffffffffffffffffffffffffffffffffffff16815260200190815260200160002081905550600160046000600154815260200190815260200160002060003373ffffffffffffffffffffffffffffffffffffffff1673ffffffffffffffffffffffffffffffffffffffff16815260200190815260200160002060006101000a81548160ff0219169083151502179055506001543373ffffffffffffffffffffffffffffffffffffffff167fb7f20d0949b6a8bc59d005af4a52f7ff5d0cfcde9056fa556adb0e4b24dcb6d28360405161085191906109d3565b60405180910390a350565b600080fd5b60008115159050919050565b61087681610861565b811461088157600080fd5b50565b6000813590506108938161086d565b92915050565b6000602082840312156108af576108ae61085c565b5b60006108bd84828501610884565b91505092915050565b600073ffffffffffffffffffffffffffffffffffffffff82169050919050565b60006108f1826108c6565b9050919050565b610901816108e6565b811461090c57600080fd5b50565b60008135905061091e816108f8565b92915050565b6000819050919050565b61093781610924565b811461094257600080fd5b50565b6000813590506109548161092e565b92915050565b600080604083850312156109715761097061085c565b5b600061097f8582860161090f565b925050602061099085828601610945565b9150509250929050565b6109a381610861565b82525050565b60006020820190506109be600083018461099a565b92915050565b6109cd81610924565b82525050565b60006020820190506109e860008301846109c4565b92915050565b600060208284031215610a0457610a0361085c565b5b6000610a1284828501610945565b91505092915050565b60008060408385031215610a3257610a3161085c565b5b6000610a4085828601610945565b9250506020610a518582860161090f565b9150509250929050565b610a64816108e6565b82525050565b6000602082019050610a7f6000830184610a5b565b92915050565b600082825260208201905092915050565b7f4f6e6c79206f776e65722063616e2063616c6c20746869730000000000000000600082015250565b6000610acc601883610a85565b9150610ad782610a96565b602082019050919050565b60006020820190508181036000830152610afb81610abf565b9050919050565b7f4e487b7100000000000000000000000000000000000000000000000000000000600052601160045260246000fd5b6000610b3c82610924565b9150610b4783610924565b9250828201905080821115610b5f57610b5e610b02565b5b92915050565b7f4d61782073636f7265206d757374206265203e20300000000000000000000000600082015250565b6000610b9b601583610a85565b9150610ba682610b65565b602082019050919050565b60006020820190508181036000830152610bca81610b8e565b9050919050565b7f5175697a206973206e6f74206163746976650000000000000000000000000000600082015250565b6000610c07601283610a85565b9150610c1282610bd1565b602082019050919050565b60006020820190508181036000830152610c3681610bfa565b9050919050565b7f416c7265616479207375626d6974746564207468697320726f756e6400000000600082015250565b6000610c73601c83610a85565b9150610c7e82610c3d565b602082019050919050565b60006020820190508181036000830152610ca281610c66565b9050919050565b7f53636f7265206d7573742062652067726561746572207468616e203000000000600082015250565b6000610cdf601c83610a85565b9150610cea82610ca9565b602082019050919050565b60006020820190508181036000830152610d0e81610cd2565b9050919050565b7f53636f72652065786365656473206d6178696d756d0000000000000000000000600082015250565b6000610d4b601583610a85565b9150610d5682610d15565b602082019050919050565b60006020820190508181036000830152610d7a81610d3e565b905091905056fea264697066735822122088ed349d14280da9834082c6a751e8824e928c15d9cc4354ac314e4090075a4e64736f6c63430008140033",
  "linkReferences": {},
  "deployedLinkReferences": {}
}