{
  "_format": "hh-sol-artifact-1",
  "contractName": "QuizScore",
  "sourceName": "contracts/QuizScore.sol",
  "abi": [
    {
      "anonymous": false,
      "inputs": [
        {
          "indexed": true,
          "internalType": "address",
          "name": "user",
          "type": "address"
        },
        {
          "indexed": false,
          "internalType": "uint256",
          "name": "score",
          "type": "uint256"
        }
      ],
      "name": "ScoreSubmitted",
      "type": "event"
    },
    {
      "inputs": [],
      "name": "LOCK_DURATION",
      "outputs": [
        {
          "internalType": "uint256",
          "name": "",
          "type": "uint256"
        }
      ],
      "stateMutability": "view",
      "type": "function"
    },
    {
      "inputs": [],
      "name": "getMyScore",
      "outputs": [
        {
          "internalType": "uint256",
          "name": "score",
          "type": "uint256"
        },
        {
          "internalType": "uint256",
          "name": "lastSubmitted",
          "type": "uint256"
        }
      ],
      "stateMutability": "view",
      "type": "function"
    },
    {
      "inputs": [
        {
          "internalType": "address",
          "name": "",
          "type": "address"
        }
      ],
      "name": "scores",
      "outputs": [
        {
          "internalType": "uint256",
          "name": "score",
          "type": "uint256"
        },
        {
          "internalType": "uint256",
          "name": "timestamp",
          "type": "uint256"
        }
      ],
      "stateMutability": "view",
      "type": "function"
    },
    {
      "inputs": [
        {
          "internalType": "uint256",
          "name": "_score",
          "type": "uint256"
        }
      ],
      "name": "submitScore",
      "outputs": [],
      "stateMutability": "nonpayable",
      "type": "function"
    }
  ],
  "bytecode": "0x608060405234801561001057600080fd5b50610612806100206000396000f3fe608060405234801561001057600080fd5b506004361061004c5760003560e01c8063485d38341461005157806376dd110f1461006f578063aff0b297146100a0578063f1599f2c146100bc575b600080fd5b6100596100db565b604051610066919061033d565b60405180910390f35b610089600480360381019061008491906103bb565b6100e2565b6040516100979291906103e8565b60405180910390f35b6100ba60048036038101906100b5919061043d565b610106565b005b6100c46102ad565b6040516100d29291906103e8565b60405180910390f35b6212750081565b60006020528060005260406000206000915090508060000154908060010154905082565b6103e881111561014b576040517f08c379a0000000000000000000000000000000000000000000000000000000008152600401610142906104c7565b60405180910390fd5b60008060003373ffffffffffffffffffffffffffffffffffffffff1673ffffffffffffffffffffffffffffffffffffffff16815260200190815260200160002090506212750081600101546101a09190610516565b4211806101b257506103208160000154105b6101f1576040517f08c379a00000000000000000000000000000000000000000000000000000000081526004016101e8906105bc565b60405180910390fd5b6040518060400160405280838152602001428152506000803373ffffffffffffffffffffffffffffffffffffffff1673ffffffffffffffffffffffffffffffffffffffff16815260200190815260200160002060008201518160000155602082015181600101559050503373ffffffffffffffffffffffffffffffffffffffff167fa578df9b0453d14d7ed8615ee0e9d58f70e041e91fc5865e3b71f81ea05296c0836040516102a1919061033d565b60405180910390a25050565b60008060008060003373ffffffffffffffffffffffffffffffffffffffff1673ffffffffffffffffffffffffffffffffffffffff1681526020019081526020016000206040518060400160405290816000820154815260200160018201548152505090508060000151816020015192509250509091565b6000819050919050565b61033781610324565b82525050565b6000602082019050610352600083018461032e565b92915050565b600080fd5b600073ffffffffffffffffffffffffffffffffffffffff82169050919050565b60006103888261035d565b9050919050565b6103988161037d565b81146103a357600080fd5b50565b6000813590506103b58161038f565b92915050565b6000602082840312156103d1576103d0610358565b5b60006103df848285016103a6565b91505092915050565b60006040820190506103fd600083018561032e565b61040a602083018461032e565b9392505050565b61041a81610324565b811461042557600080fd5b50565b60008135905061043781610411565b92915050565b60006020828403121561045357610452610358565b5b600061046184828501610428565b91505092915050565b600082825260208201905092915050565b7f496e76616c69642073636f726500000000000000000000000000000000000000600082015250565b60006104b1600d8361046a565b91506104bc8261047b565b602082019050919050565b600060208201905081810360008301526104e0816104a4565b9050919050565b7f4e487b7100000000000000000000000000000000000000000000000000000000600052601160045260246000fd5b600061052182610324565b915061052c83610324565b9250828201905080821115610544576105436104e7565b5b92915050565b7f596f75206d75737420776169742032207765656b7320746f20726574616b652060008201527f746865207175697a2e0000000000000000000000000000000000000000000000602082015250565b60006105a660298361046a565b91506105b18261054a565b604082019050919050565b600060208201905081810360008301526105d581610599565b905091905056fea2646970667358221220cd55f27179fc6d3d2f2799f557bab19bc0dc6356208e46e829064d53efccb89164736f6c63430008140033",
  "linkReferences": {},
  "deployedLinkReferences": {}
}